:020000040800F2
:100000000028002051100008F50B0008FB0B000829
:10001000010C0008070C00080D0C0008000000008F
:10002000000000000000000000000000130C0008A9
:100030001F0C0008000000002B0C0008370C000803
:1000400099100008991000089910000899100008EC
:1000500099100008991000089910000899100008DC
:1000600099100008991000089910000899100008CC
:1000700099100008991000089910000899100008BC
:1000800099100008991000089910000899100008AC
:10009000991000089910000899100008991000089C
:1000A000991000089910000899100008991000088C
:1000B000450C000899100008000000009910000885
:1000C00099100008000000000000000099100008CE
:1000D00000000000991000089910000800000000BE
:1000E00099100008991000089910000800000000FD
:1000F0000000000000000000000000000000000000
:0C01000000000000000000005FF808F1A3
:10010C0010B5054C237833B9044B13B10448AFF345
:10011C0000800123237010BD20000020000000008F
:10012C00F026000808B5034B1BB103490348AFF395
:10013C00008008BD0000000024000020F02600080C
:10014C0080B500AFB84B1B78032B00F2608101A285
:10015C0052F823F071010008B90100087B02000875
:10016C003B030008B14B1B68DBB2184600F046FAA3
:10017C00002000F0E9F90346002B0BD0AA4B01221A
:10018C001A70AB4B00221A7000F016FE4FF47A7006
:10019C0000F062FDA74B1B68012B40F03C8100F086
:1001AC0031FE4FF47A7000F057FD34E1A04B1B7810
:1001BC000221184600F0E6F99C4B1B68DBB218468E
:1001CC0000F01CFA002000F0BFF90346002B11D000
:1001DC00954B02221A70984B00221A704FF47A70C9
:1001EC0000F03AFD00F0E8FD00224FF40051934876
:1001FC0001F04FFA924B1B68002B03D008218F485B
:10020C0001F05FFA012000F09FF90346002B12D099
:10021C00874B1B785A1C8B4B83FB0213134499118D
:10022C00D317C91A0B465B000B4459010B44D11A66
:10023C00CAB27F4B1A70022000F086F90346002BDD
:10024C000BD07B4B1B780021184600F075FD01226A
:10025C004FF40051794801F01CFA764B1B68012BC6
:10026C0040F0DB804FF47A7000F0F6FCD5E0724B76
:10027C001B780321184600F085F96C4B1B68DBB228
:10028C00184600F0BBF9002000F05EF90346002B85
:10029C0011D0654B03221A706B4B00221A704FF46D
:1002AC007A7000F0D9FC00F087FD00224FF4005169
:1002BC00624801F0EEF9624B1B68002B03D0202141
:1002CC005E4801F0FEF9012000F03EF90346002BD8
:1002DC0012D0594B1B785A1C5A4B83FB02131344F4
:1002EC009911D317C91A0B465B000B4459010B44E7
:1002FC00D11ACAB2504B1A70022000F025F90346ED
:10030C00002B0BD04C4B1B780121184600F014FD30
:10031C0001224FF40051494801F0BBF9454B1B68D1
:10032C00012B7CD14FF47A7000F096FC77E0464BB1
:10033C001B780421184600F025F93C4B1B68DBB2F6
:10034C00184600F05BF9002000F0FEF80346002B85
:10035C001DD0354B00221A70354B00221A704FF409
:10036C007A7000F079FC00224FF40051334801F010
:10037C0090F9354B1B78184600F0CCFC0346022153
:10038C00184600F0D9FC00F017FD00F0E9FC2C4BEE
:10039C001B68002B03D01021284801F092F9012092
:1003AC0000F0D2F80346002B12D0274B1B785A1CB6
:1003BC00244B83FB021313449911D317C91A0B4610
:1003CC005B000B4459010B44D11ACAB21E4B1A7074
:1003DC00022000F0B9F80346002B0FD01A4B1B7803
:1003EC00184600F097FC03460221184600F0A4FCC6
:1003FC0001224FF40051114801F04BF90D4B1B68D1
:10040C00012B0ED14FF47A7000F026FC09E0064B5C
:10041C0000221A7006E000BF04E000BF02E000BF3B
:10042C0000E000BF00BF80BD3C0000205800002051
:10043C003D000020540000203E000020000C014034
:10044C005C00002003B57EA53F00002080B483B083
:10045C0000AF00237B6011E00D4A7B68134401223E
:10046C001A700C4A7B68134401221A700A4A7B6882
:10047C00134401221A707B6801337B607B68022B6A
:10048C00EADD00BF00BF0C37BD4680BC704700BF23
:10049C0044000020480000204000002080B582B0BD
:1004AC0000AF234B1B78062B37D9214B00221A7037
:1004BC0000237B602DE01F4A7B68134419781E4A89
:1004CC007B6813440A461A701C4A7B6832F8133056
:1004DC0019461B4801F0C6F803461946154A7B68B5
:1004EC0013440A461A70134A7B6813441A7812494B
:1004FC007B680B441B789A4208D10E4A7B681344E4
:10050C001978104A7B6813440A461A707B680133C9
:10051C007B607B68022BCED905E0054B1B78013341
:10052C00DAB2034B1A7000BF0837BD4680BD00BF5E
:10053C004B00002044000020480000200000002058
:10054C00000C01404000002080B483B000AF034693
:10055C00FB71FB79022B01D900230BE0FB79084AD4
:10056C00D35C002B05D1FB79054A0121D154012321
:10057C0000E0002318460C37BD4680BC704700BF16
:10058C004000002080B483B000AF03460A46FB71E4
:10059C001346BB71FB79174AA2FB0323DB08DAB2C3
:1005AC00154B1A70FA79134BA3FB0213D9080B469F
:1005BC009B000B445B00D31ADAB20F4B5A70BB7919
:1005CC000C4AA2FB0323DB08DAB20B4B9A70BA7904
:1005DC00084BA3FB0213D9080B469B000B445B0092
:1005EC00D31ADAB2044BDA7000BF0C37BD4680BCAC
:1005FC00704700BFCDCCCCCC4C00002080B582B075
:10060C0000AF0346FB71FB79002B02D0012B2DD0E0
:10061C0059E000224FF480612D4801F03AF8002295
:10062C004FF480512A4801F034F801224FF4007144
:10063C00274801F02EF801224FF40061244801F004
:10064C0028F8244B1B781A46234B9A5C234B1A70C0
:10065C00204B9B781A46204B9A5C204B9A700020BA
:10066C0000F03EF8022000F0BDF82CE000224FF420
:10067C000071174801F00DF800224FF40061144886
:10068C0001F007F801224FF48061114801F001F8E4
:10069C0001224FF480510E4800F0FBFF0D4B5B78AC
:1006AC001A460D4B9A5C0D4B5A700A4BDB781A4666
:1006BC00094B9A5C094BDA70012000F011F8032009
:1006CC0000F090F800BF00BF0837BD4680BD00BFEA
:1006DC00000C01404C0000200800002050000020BD
:1006EC0080B582B000AF0346FB71FB793B4AD35C0B
:1006FC0003F00103002B0CBF01230023DBB21A46CD
:10070C000221374800F0C5FFFB79344AD35C5B0803
:10071C00DBB203F00103002B0CBF01230023DBB27F
:10072C001A4604212E4800F0B4FFFB792B4AD35C07
:10073C009B08DBB203F00103002B0CBF0123002349
:10074C00DBB21A460821264800F0A3FFFB79234AA6
:10075C00D35CDB08DBB203F00103002B0CBF0123DD
:10076C000023DBB21A4610211D4800F092FFFB79E2
:10077C001A4AD35C1B09DBB203F00103002B0CBF3C
:10078C0001230023DBB21A462021154800F081FF1B
:10079C00FB79124AD35C5B09DBB203F00103002B3B
:1007AC000CBF01230023DBB21A4640210C4800F099
:1007BC0070FFFB79094AD35C9B09DBB203F00103A0
:1007CC00002B0CBF01230023DBB21A468021044806
:1007DC0000F05FFF00BF0837BD4680BD5000002011
:1007EC000008014080B582B000AF0346FB71FB7975
:1007FC003F4AD35C03F00103002B0CBF0123002301
:10080C00DBB21A464FF480713A4800F042FFFB7994
:10081C00374AD35C5B08DBB203F00103002B0CBF3F
:10082C0001230023DBB21A464FF40071314800F06B
:10083C0030FFFB792E4AD35C9B08DBB203F001033B
:10084C00002B0CBF01230023DBB21A464FF480614E
:10085C00284800F01EFFFB79254AD35CDB08DBB28D
:10086C0003F00103002B0CBF01230023DBB21A465B
:10087C004FF400611F4800F00CFFFB791C4AD35C5D
:10088C001B09DBB203F00103002B0CBF0123002377
:10089C00DBB21A464FF48051164800F0FAFEFB7991
:1008AC00134AD35C5B09DBB203F00103002B0CBFD2
:1008BC0001230023DBB21A464FF400510D4800F01F
:1008CC00E8FEFB790A4AD35C9B09DBB203F0010317
:1008DC00002B0CBF01230023DBB21A464FF48041DE
:1008EC00044800F0D6FE00BF0837BD4680BD00BFEF
:1008FC00500000200008014080B500AF00F0C8FB9C
:10090C0000F022F800F0A8F800F05AF80D4801F0B9
:10091C0029FBFFF79BFD00F04FFA0021052000F0AA
:10092C000BFA0121022000F007FA0221032000F04B
:10093C0003FA00F015FA4FF47A7000F08DF9FFF716
:10094C00FFFBFCE77000002080B590B000AF07F112
:10095C00180328220021184601F0BCFE3B1D002282
:10096C001A605A609A60DA601A610223BB61012333
:10097C00BB621023FB6200237B6307F1180318464C
:10098C0000F0B8FE0346002B01D000F0D1F80F2385
:10099C007B600023BB600023FB6000233B610023D2
:1009AC007B613B1D0021184601F024F90346002B06
:1009BC0001D000F0BDF800BF4037BD4680BD00003F
:1009CC0080B586B000AF07F1080300221A605A60A8
:1009DC009A60DA603B4600221A605A601D4B4FF059
:1009EC0080421A601B4B41F63F725A60194B002231
:1009FC009A60184B0922DA60164B00221A61154BCB
:100A0C0000229A61134801F05DFA0346002B01D0D5
:100A1C0000F08EF84FF48053BB6007F108031946C1
:100A2C000C4801F0F3FB0346002B01D000F080F8DA
:100A3C0000233B6000237B603B461946054801F0D0
:100A4C00BBFD0346002B01D000F072F800BF183735
:100A5C00BD4680BD7000002080B586B000AF07F1A8
:100A6C00080300221A605A609A60DA60284B9B696E
:100A7C00274A43F004039361254B9B6903F004035D
:100A8C007B607B68224B9B69214A43F0080393618E
:100A9C001F4B9B6903F008033B603B6800224FF639
:100AAC00FE711C4800F0F5FD002243F6F8711A485F
:100ABC0000F0EFFD4FF6FE73BB600123FB600023DB
:100ACC003B6102237B6107F108031946114800F0D2
:100ADC004FFC0723BB600023FB6000233B6107F145
:100AEC00080319460C4800F043FC43F6F873BB604E
:100AFC000123FB6000233B6102237B6107F10803A8
:100B0C001946054800F034FC00BF1837BD4680BDBF
:100B1C000010024000080140000C014080B582B07A
:100B2C0000AF786000F0B4F800BF0837BD4680BD58
:100B3C0080B400AF72B600BFFEE7000080B485B091
:100B4C0000AF154B9B69144A43F001039361124BA0
:100B5C009B6903F00103BB60BB680F4BDB690E4A5A
:100B6C0043F08053D3610C4BDB6903F080537B6003
:100B7C007B680A4B5B68FB60FB6823F0E063FB60FF
:100B8C00FB6843F08063FB60044AFB68536000BF62
:100B9C001437BD4680BC7047001002400000014075
:100BAC0080B584B000AF78607B681B68B3F1804F70
:100BBC0013D10C4BDB690B4A43F00103D361094B96
:100BCC00DB6903F00103FB60FB68002200211C20A1
:100BDC0000F097FB1C2000F0B0FB00BF1037BD46A7
:100BEC0080BD00BF0010024080B400AFFEE780B4AF
:100BFC0000AFFEE780B400AFFEE780B400AFFEE7C5
:100C0C0080B400AFFEE780B400AF00BFBD4680BC2F
:100C1C00704780B400AF00BFBD4680BC704780B445
:100C2C0000AF00BFBD4680BC704780B500AF00F080
:100C3C0075FA00BF80BD000080B500AF024801F01E
:100C4C00DDF900BF80BD00BF7000002080B400AF94
:100C5C0000BFBD4680BC704780B483B000AF7860E5
:100C6C007B68084A82FB03129210DB17D31A064AE0
:100C7C001360064B00221A6000BF0C37BD4680BCC7
:100C8C00704700BF67666666B800002054000020FD
:100C9C0080B500AF1A4B1B68002B2FDD184B1B685F
:100CAC00013B174A1360FFF7F9FB154B1B68322BFE
:100CBC0003DD144B01221A6002E0124B00221A6071
:100CCC000F4B1968104B83FB0123DA10CB17D21A88
:100CDC0013469B0013449A001344CA1A002A03D1EA
:100CEC000A4B01221A6002E0084B00221A60044BE6
:100CFC001B68002B02D1064B01221A6000BF80BD7D
:100D0C00B8000020580000201F85EB515C0000202B
:100D1C005400002080B483B000AF0346FB71054B38
:100D2C001A78044B5B78D31ADBB218460C37BD46E5
:100D3C0080BC70476000002080B483B000AF0346D5
:100D4C000A46FB711346BB71BB790449FA79CA5444
:100D5C0000BF0C37BD4680BC704700BF6000002050
:100D6C0080B400AF0D4B1A780D4B1A700B4B5A78A0
:100D7C000C4B1A70094B9A780B4B1A70074B1A785C
:100D8C000A4B1A70054B5A78094B1A70034B9A7818
:100D9C00084B1A7000BFBD4680BC70476000002035
:100DAC006300002064000020650000206600002025
:100DBC00670000206800002080B500AF01220821E8
:100DCC000F4800F066FC012220210D4800F061FC68
:100DDC00012210210A4800F05CFC01224021084845
:100DEC0000F057FC01224FF48071054800F051FCD3
:100DFC0001228021024800F04CFC00BF80BD00BFE6
:100E0C00000C014080B500AF864B1B680133854A4E
:100E1C001360854B1B781A46824B1B689A4228DB61
:100E2C00824B1B78824A127811461846FFF7AAFBB0
:100E3C00012240217F4800F02CFC7C4B1B78013BAD
:100E4C00DAB27A4B1A70012220217A4800F021FC88
:100E5C0000220821774800F01CFC002280217548F4
:100E6C0000F017FC724B1B78013BDAB2704B1A7016
:100E7C0086E06D4B1B781A466F4B1B781A44694BF6
:100E8C001B689A421FDB694B1B786C4A127811461F
:100E9C001846FFF777FB01228021664800F0F9FB2A
:100EAC0000224FF48071634800F0F3FB634B1B7816
:100EBC00013BDAB2614B1A705C4B1B78013BDAB226
:100ECC005A4B1A705CE0584B1B785B005A4A1278EC
:100EDC001A44544B1B689A4229DB554B1B78534AD6
:100EEC00127811461846FFF74DFB01220821514894
:100EFC0000F0CFFB002210214E4800F0CAFB4C4BF7
:100F0C001B78013BDAB24A4B1A7001224FF4807104
:100F1C00484800F0BEFB00224021464800F0B9FBD7
:100F2C00424B1B78013BDAB2404B1A7028E03E4B27
:100F3C001B781A46404B1B7813445A00394B1B68DC
:100F4C009A421DDB3D4B1B78384A127811461846E5
:100F5C00FFF718FB01221021364800F09AFB002203
:100F6C002021344800F095FB344B1B78013BDAB25E
:100F7C00324B1A702D4B1B78013BDAB22B4B1A708B
:100F8C00294B1B781A46274B1B689A4204D12C4BD1
:100F9C009A78274B1A7034E0234B1B781A46264B51
:100FAC001B781A441F4B1B689A4208D1244B1A78A1
:100FBC001E4B1A70224B5A78204B1A7021E01A4B98
:100FCC001B785B001C4A12781A44164B1B689A4219
:100FDC0004D11B4B9A78164B1A7012E0124B1B78EB
:100FEC001A46154B1B7813445A000E4B1B689A4239
:100FFC0007D1134B1A780D4B1A70114B5A780F4BB3
:10100C001A70094B1B781A460B4B1B7813445A0069
:10101C00044B1B689A4202DC024B00221A6000BF90
:10102C0080BD00BF6C000020680000206300002021
:10103C0065000020000C01406700002064000020C7
:10104C00600000200C480D490D4A002302E0D458E2
:10105C00C4500433C4188C42F9D30A4A0A4C0023F6
:10106C0001E013600432A242FBD3FFF7EFFD01F065
:10107C000DFBFFF741FC7047000000202000002012
:10108C003027000820000020C0000020FEE70000F0
:10109C0080B500AF084B1B68074A43F01003136080
:1010AC00032000F023F90F2000F008F8FFF746FDAD
:1010BC000023184680BD00BF0020024080B582B0DE
:1010CC0000AF7860124B1A68124B1B7819464FF41C
:1010DC007A73B3FBF1F3B2FBF3F3184600F03BF970
:1010EC000346002B01D001230EE07B680F2B0AD89E
:1010FC00002279684FF0FF3000F003F9064A7B6854
:10110C001360002300E0012318460837BD4680BD5C
:10111C00140000201C0000201800002080B400AF38
:10112C00054B1B781A46054B1B681344034A136086
:10113C0000BFBD4680BC70471C000020BC000020D6
:10114C0080B400AF024B1B681846BD4680BC70478C
:10115C00BC00002080B485B000AF78607B6803F0E1
:10116C000703FB600C4BDB68BB60BA684FF6FF03F0
:10117C001340BB60FB681A02BB68134343F0BF63A8
:10118C0043F40033BB60044ABB68D36000BF143720
:10119C00BD4680BC704700BF00ED00E080B400AFDE
:1011AC00044BDB681B0A03F007031846BD4680BCE2
:1011BC00704700BF00ED00E080B483B000AF034681
:1011CC00FB7197F90730002B0BDBFB7903F01F0247
:1011DC00064997F907305B09012000FA02F241F841
:1011EC00232000BF0C37BD4680BC704700E100E0F7
:1011FC0080B483B000AF03463960FB7197F90730B8
:10120C00002B0ADB3B68DAB20C4997F90730120164
:10121C00D2B20B4483F800230AE03B68DAB20849E7
:10122C00FB7903F00F03043B1201D2B20B441A7684
:10123C0000BF0C37BD4680BC704700BF00E100E02A
:10124C0000ED00E080B489B000AFF860B9607A605E
:10125C00FB6803F00703FB61FB69C3F10703042B75
:10126C0028BF0423BB61FB690433062B02D9FB693D
:10127C00033B00E000237B614FF0FF32BB6902FAB5
:10128C0003F3DA43BB681A407B699A404FF0FF3195
:10129C007B6901FA03F3D9437B680B40134318466F
:1012AC002437BD4680BC704780B582B000AF7860F3
:1012BC007B68013BB3F1807F01D301230FE00A4A25
:1012CC007B68013B53600F214FF0FF30FFF790FF1D
:1012DC00054B00229A60044B07221A600023184623
:1012EC000837BD4680BD00BF10E000E080B582B07D
:1012FC0000AF78607868FFF72DFF00BF0837BD4658
:10130C0080BD80B586B000AF0346B9607A60FB73D0
:10131C0000237B61FFF742FF78617A68B9687869CE
:10132C00FFF790FF024697F90F3011461846FFF76A
:10133C005FFF00BF1837BD4680BD80B582B000AFDF
:10134C000346FB7197F907301846FFF735FF00BFCE
:10135C000837BD4680BD80B582B000AF7860786834
:10136C00FFF7A2FF034618460837BD4680BD0000B4
:10137C0080B48BB000AF7860396000237B620023AF
:10138C003B6248E101227B6A02FA03F3FB613B6892
:10139C001B68FA691340BB61BA69FB699A4240F059
:1013AC0037813B685B68A34A93425ED0A14A934263
:1013BC0075D8A14A934258D09F4A93426FD89F4AFE
:1013CC00934252D09D4A934269D89D4A93424CD045
:1013DC009B4A934263D89B4A934246D0994A934284
:1013EC005DD8122B2AD8122B59D801A252F823F00F
:1013FC00771400085114000863140008A5140008A1
:10140C00AB140008AB140008AB140008AB140008B4
:10141C00AB140008AB140008AB140008AB140008A4
:10142C00AB140008AB140008AB140008AB14000894
:10143C00AB140008591400086D140008824A93423A
:10144C0013D02CE03B68DB683B6229E03B68DB682F
:10145C0004333B6224E03B68DB6808333B621FE0EB
:10146C003B68DB680C333B621AE03B689B68002BE3
:10147C0002D104233B6213E03B689B68012B05D12E
:10148C0008233B627B68FA691A6109E008233B6216
:10149C007B68FA695A6103E000233B6200E000BFFD
:1014AC00BB69FF2B01D87B6801E07B6804337B614F
:1014BC00BB69FF2B02D87B6A9B0002E07B6A083B6E
:1014CC009B003B617B691A680F213B6901FA03F3AE
:1014DC00DB431A40396A3B6901FA03F31A437B690F
:1014EC001A603B685B6803F08053002B00F090801F
:1014FC00564B9B69554A43F001039361534B9B69CF
:10150C0003F00103BB60BB68514A7B6A9B08023342
:10151C0052F82330FB607B6A03F003039B000F221D
:10152C0002FA03F3DB43FA681340FB607B68494A19
:10153C0093420DD07B68484A934207D07B68474A58
:10154C00934201D1022304E0032302E0012300E0D3
:10155C0000237A6A02F0030292009340FA68134364
:10156C00FB603B497B6A9B080233FA6841F82320F5
:10157C003B685B6803F48033002B06D0384B1A6849
:10158C003749BB6913430B6006E0354B1A68BB69DE
:10159C00DB43334913400B603B685B6803F4003357
:1015AC00002B06D02E4B5A682D49BB6913434B6058
:1015BC0006E02B4B5A68BB69DB43294913404B604F
:1015CC003B685B6803F48013002B06D0244B9A68AD
:1015DC002349BB6913438B6006E0214B9A68BB69B6
:1015EC00DB431F4913408B603B685B6803F40013BB
:1015FC00002B06D01A4BDA681949BB691343CB6030
:10160C0006E0174BDA68BB69DB4315491340CB6026
:10161C007B6A01337B623B681A687B6A22FA03F3AC
:10162C00002B7FF4AFAE00BF00BF2C37BD4680BC93
:10163C00704700BF00003210000031100000221073
:10164C0000002110000012100000111000100240C8
:10165C000000014000080140000C01400010014056
:10166C000004014080B485B000AF78600B467B80ED
:10167C007B689A687B881340002B02D00123FB7394
:10168C0001E00023FB73FB7B18461437BD4680BC7E
:10169C00704780B483B000AF78600B467B801346F4
:1016AC007B707B78002B03D07A887B681A6103E00F
:1016BC007B881A047B681A6100BF0C37BD4680BC5E
:1016CC00704780B485B000AF78600B467B807B6838
:1016DC00DB68FB607A88FB6813401A04FB68D9430B
:1016EC007B880B401A437B681A6100BF1437BD46D8
:1016FC0080BC704780B586B000AF78607B68002BEB
:10170C0001D101236CE27B681B6803F00103002B01
:10171C0000F08780924B5B6803F00C03042B0CD019
:10172C008F4B5B6803F00C03082B12D18C4B5B685E
:10173C0003F48033B3F5803F0BD1894B1B6803F462
:10174C000033002B6CD07B685B68002B68D10123C5
:10175C0046E27B685B68B3F5803F06D1804B1B6823
:10176C007F4A43F4803313602EE07B685B68002B68
:10177C000CD17B4B1B687A4A23F480331360784B73
:10178C001B68774A23F4802313601DE07B685B6839
:10179C00B3F5A02F0CD1724B1B68714A43F4802314
:1017AC0013606F4B1B686E4A43F4803313600BE07D
:1017BC006B4B1B686A4A23F480331360684B1B68BD
:1017CC00674A23F4802313607B685B68002B13D07B
:1017DC00FFF7B6FC386108E0FFF7B2FC02463B6944
:1017EC00D31A642B01D90323FAE15D4B1B6803F474
:1017FC000033002BF0D014E0FFF7A2FC386108E0B6
:10180C00FFF79EFC02463B69D31A642B01D90323D4
:10181C00E6E1534B1B6803F40033002BF0D100E0DE
:10182C0000BF7B681B6803F00203002B63D04C4B9A
:10183C005B6803F00C03002B0BD0494B5B6803F087
:10184C000C03082B1CD1464B5B6803F48033002B34
:10185C0016D1434B1B6803F00203002B05D07B68A9
:10186C001B69012B01D00123BAE13D4B1B6823F00E
:10187C00F8027B685B69DB00394913430B603AE083
:10188C007B681B69002B20D0364B01221A60FFF7B6
:10189C0057FC386108E0FFF753FC02463B69D31A4A
:1018AC00022B01D903239BE12D4B1B6803F0020390
:1018BC00002BF0D02A4B1B6823F0F8027B685B6985
:1018CC00DB00274913430B6015E0264B00221A60FE
:1018DC00FFF736FC386108E0FFF732FC02463B6943
:1018EC00D31A022B01D903237AE11D4B1B6803F099
:1018FC000203002BF0D17B681B6803F00803002B5C
:10190C003AD07B689B69002B19D0174B01221A60C7
:10191C00FFF716FC386108E0FFF712FC02463B6942
:10192C00D31A022B01D903235AE10D4B5B6A03F046
:10193C000203002BF0D0012000F0A6FA1CE00A4BA9
:10194C0000221A60FFF7FCFB38610FE0FFF7F8FB91
:10195C0002463B69D31A022B08D9032340E100BF8E
:10196C000010024000004242800442429E4B5B6ADF
:10197C0003F00203002BE9D17B681B6803F004031E
:10198C00002B00F0A6800023FB75974BDB6903F05E
:10199C008053002B0DD1944BDB69934A43F0805359
:1019AC00D361914BDB6903F08053BB60BB680123AF
:1019BC00FB758E4B1B6803F48073002B18D18B4B7B
:1019CC001B688A4A43F480731360FFF7B9FB3861D4
:1019DC0008E0FFF7B5FB02463B69D31A642B01D92B
:1019EC000323FDE0814B1B6803F48073002BF0D0C4
:1019FC007B68DB68012B06D17B4B1B6A7A4A43F070
:101A0C00010313622DE07B68DB68002B0CD1764B55
:101A1C001B6A754A23F001031362734B1B6A724AEB
:101A2C0023F0040313621CE07B68DB68052B0CD1EC
:101A3C006D4B1B6A6C4A43F0040313626A4B1B6ABE
:101A4C00694A43F0010313620BE0674B1B6A664A59
:101A5C0023F001031362644B1B6A634A23F00403F3
:101A6C0013627B68DB68002B15D0FFF769FB3861CC
:101A7C000AE0FFF765FB02463B69D31A41F2883254
:101A8C00934201D90323ABE0574B1B6A03F00203CB
:101A9C00002BEED014E0FFF753FB38610AE0FFF7A0
:101AAC004FFB02463B69D31A41F28832934201D96B
:101ABC00032395E04C4B1B6A03F00203002BEED181
:101ACC00FB7D012B05D1484BDB69474A23F0805342
:101ADC00D3617B68DB69002B00F08180424B5B6833
:101AEC0003F00C03082B61D07B68DB69022B46D119
:101AFC003F4B00221A60FFF723FB386108E0FFF729
:101B0C001FFB02463B69D31A022B01D9032367E062
:101B1C00354B1B6803F00073002BF0D17B681B6AFC
:101B2C00B3F5803F08D1304B5B6823F400327B68FF
:101B3C009B682D4913434B602B4B5B6823F4741249
:101B4C007B68196A7B685B6A0B43274913434B60BC
:101B5C00274B01221A60FFF7F3FA386108E0FFF710
:101B6C00EFFA02463B69D31A022B01D9032337E063
:101B7C001D4B1B6803F00073002BF0D02FE01C4BA7
:101B8C0000221A60FFF7DCFA386108E0FFF7D8FA98
:101B9C0002463B69D31A022B01D9032320E0124BD6
:101BAC001B6803F00073002BF0D118E07B68DB6935
:101BBC00012B01D1012313E00B4B5B68FB60FB682D
:101BCC0003F480327B681B6A9A4206D1FB6803F4EB
:101BDC0070127B685B6A9A4201D0012300E00023FB
:101BEC0018461837BD4680BD0010024000700040FA
:101BFC006000424280B584B000AF786039607B6889
:101C0C00002B01D10123D0E06A4B1B6803F00703C2
:101C1C003A689A4210D9674B1B6823F00702654952
:101C2C003B6813430B60634B1B6803F007033A6874
:101C3C009A4201D00123B8E07B681B6803F00203D1
:101C4C00002B20D07B681B6803F00403002B05D00D
:101C5C00594B5B68584A43F4E06353607B681B68DC
:101C6C0003F00803002B05D0534B5B68524A43F436
:101C7C0060535360504B5B6823F0F0027B689B68A9
:101C8C004D4913434B607B681B6803F00103002B29
:101C9C0040D07B685B68012B07D1474B1B6803F472
:101CAC000033002B15D101237FE07B685B68022B8E
:101CBC0007D1414B1B6803F00073002B09D10123A2
:101CCC0073E03D4B1B6803F00203002B01D1012391
:101CDC006BE0394B5B6823F003027B685B68364929
:101CEC0013434B60FFF72CFAF8600AE0FFF728FA71
:101CFC000246FB68D31A41F28832934201D903237E
:101D0C0053E02D4B5B6803F00C027B685B689B0017
:101D1C009A42EBD1274B1B6803F007033A689A42AF
:101D2C0010D2244B1B6823F0070222493B68134353
:101D3C000B60204B1B6803F007033A689A4201D0F2
:101D4C00012332E07B681B6803F00403002B08D0EE
:101D5C00194B5B6823F4E0627B68DB68164913431C
:101D6C004B607B681B6803F00803002B09D0124BF7
:101D7C005B6823F460527B681B69DB000E491343DC
:101D8C004B6000F021F802460B4B5B681B0903F01B
:101D9C000F030A49CB5C22FA03F3094A1360094B7F
:101DAC001B681846FFF78AF9002318461037BD4602
:101DBC0080BD00BF00200240001002401827000820
:101DCC00140000201800002090B48AB000AF2A4BF9
:101DDC003C1D0FCB84E80F0040F201233B80002315
:101DEC00FB610023BB6100237B6200237B6100232A
:101DFC003B62224B5B68FB61FB6903F00C03042B19
:101E0C0002D0082B03D02DE01D4B3B622DE0FB696B
:101E1C009B0C03F00F0307F12802134413F8243C26
:101E2C007B61FB6903F48033002B13D0134B5B688D
:101E3C005B0C03F0010307F12802134413F8283C50
:101E4C00BB617B690E4A02FB03F2BB69B2FBF3F385
:101E5C007B6204E07B690B4A02FB03F37B627B6AC7
:101E6C003B6202E0064B3B6200BF3B6A18462837D8
:101E7C00BD4690BC704700BF082700080010024008
:101E8C0000127A0000093D0080B485B000AF786084
:101E9C000A4B1B680A4AA2FB03235B0A7A6802FB03
:101EAC0003F3FB6000BFFB685A1EFA60002BF9D1EC
:101EBC0000BF00BF1437BD4680BC70471400002023
:101ECC00D34D621080B582B000AF78607B68002B78
:101EDC0001D1012341E07B6893F83D30DBB2002B4C
:101EEC0006D17B68002283F83C207868FEF758FE08
:101EFC007B68022283F83D207B681A687B68043378
:101F0C001946104600F06AFA7B68012283F84620D5
:101F1C007B68012283F83E207B68012283F83F20F6
:101F2C007B68012283F840207B68012283F84120E2
:101F3C007B68012283F842207B68012283F84320CE
:101F4C007B68012283F844207B68012283F84520BA
:101F5C007B68012283F83D20002318460837BD46D4
:101F6C0080BD000080B485B000AF78607B6893F8CA
:101F7C003D30DBB2012B01D0012335E07B6802221E
:101F8C0083F83D207B681B68DA687B681B6842F02D
:101F9C000102DA607B681B68164A934209D07B68A1
:101FAC001B68B3F1804F04D07B681B68124A9342C4
:101FBC0011D17B681B689B6803F00703FB60FB680F
:101FCC00062B10D07B681B681A687B681B6842F074
:101FDC0001021A6007E07B681B681A687B681B6843
:101FEC0042F001021A60002318461437BD4680BC2B
:101FFC00704700BF002C01400004004080B582B047
:10200C0000AF78607B681B681B6903F00203022B2E
:10201C0022D17B681B68DB6803F00203022B1BD107
:10202C007B681B686FF002021A617B6801221A77C9
:10203C007B681B689B6903F00303002B03D0786853
:10204C0000F0B1F905E0786800F0A4F9786800F0C8
:10205C00B3F97B6800221A777B681B681B6903F055
:10206C000403042B22D17B681B68DB6803F0040398
:10207C00042B1BD17B681B686FF004021A617B6810
:10208C0002221A777B681B689B6903F44073002B50
:10209C0003D0786800F087F905E0786800F07AF9E9
:1020AC00786800F089F97B6800221A777B681B68D6
:1020BC001B6903F00803082B22D17B681B68DB68C3
:1020CC0003F00803082B1BD17B681B686FF0080218
:1020DC001A617B6804221A777B681B68DB6903F042
:1020EC000303002B03D0786800F05DF905E07868F5
:1020FC0000F050F9786800F05FF97B6800221A77DD
:10210C007B681B681B6903F01003102B22D17B68C2
:10211C001B68DB6803F01003102B1BD17B681B685A
:10212C006FF010021A617B6808221A777B681B68B3
:10213C00DB6903F44073002B03D0786800F033F9AB
:10214C0005E0786800F026F9786800F035F97B68CE
:10215C0000221A777B681B681B6903F00103012BB3
:10216C000ED17B681B68DB6803F00103012B07D1E0
:10217C007B681B686FF001021A617868FEF7CEFC71
:10218C007B681B681B6903F08003802B0ED17B6876
:10219C001B68DB6803F08003802B07D17B681B680E
:1021AC006FF080021A61786800F067FA7B681B6830
:1021BC001B6903F04003402B0ED17B681B68DB6866
:1021CC0003F04003402B07D17B681B686FF0400283
:1021DC001A61786800F0F9F87B681B681B6903F0DA
:1021EC002003202B0ED17B681B68DB6803F02003D7
:1021FC00202B07D17B681B686FF020021A6178686E
:10220C0000F032FA00BF0837BD4680BD80B584B0FF
:10221C0000AF786039607B6893F83C30012B01D1BA
:10222C000223B3E07B68012283F83C207B68022206
:10223C0083F83D207B681B689B68FB60FB6823F080
:10224C007703FB60FB6823F47F43FB607B681B68B0
:10225C00FA689A603B681B68B3F5005F3ED0B3F533
:10226C00005F00F28780B3F5805F00F08580B3F5E6
:10227C00805F7FD8702B1AD0702B7BD8602B50D0FE
:10228C00602B77D8502B3CD0502B73D8402B58D088
:10229C00402B6FD8302B64D0302B6BD8202B60D0D8
:1022AC00202B67D8002B5CD0102B5AD062E07B68B7
:1022BC0018683B6899683B685A683B68DB6800F0B3
:1022CC005CF97B681B689B68FB60FB6843F07703D9
:1022DC00FB607B681B68FA689A604EE07B68186844
:1022EC003B6899683B685A683B68DB6800F045F9C5
:1022FC007B681B689A687B681B6842F480429A6012
:10230C003BE07B6818683B6859683B68DB681A4699
:10231C0000F0BCF87B681B685021184600F013F9DC
:10232C002BE07B6818683B6859683B68DB681A4689
:10233C0000F0DAF87B681B686021184600F003F99E
:10234C001BE07B6818683B6859683B68DB681A4679
:10235C0000F09CF87B681B684021184600F0F3F8ED
:10236C000BE07B681A683B681B681946104600F046
:10237C00EAF802E000BF00E000BF7B68012283F8AE
:10238C003D207B68002283F83C2000231846103740
:10239C00BD4680BD80B483B000AF786000BF0C3701
:1023AC00BD4680BC704780B483B000AF786000BF7E
:1023BC000C37BD4680BC704780B483B000AF7860EA
:1023CC0000BF0C37BD4680BC704780B483B000AFF3
:1023DC00786000BF0C37BD4680BC704780B485B0B8
:1023EC0000AF786039607B681B68FB607B68254AAE
:1023FC00934207D07B68B3F1804F03D07B68224AAD
:10240C00934208D1FB6823F07003FB603B685B6868
:10241C00FA681343FB607B681A4A934207D07B68C7
:10242C00B3F1804F03D07B68174A934208D1FB6805
:10243C0023F44073FB603B68DB68FA681343FB6072
:10244C00FB6823F080023B685B691343FB607B688D
:10245C00FA681A603B689A687B68DA623B681A68AB
:10246C007B689A627B68074A934203D13B681A697E
:10247C007B681A637B6801225A6100BF1437BD4622
:10248C0080BC7047002C01400004004080B487B031
:10249C0000AFF860B9607A60FB681B6A7B61FB680F
:1024AC001B6A23F00102FB681A62FB689B693B61A3
:1024BC003B6923F0F0033B617B681B013A691343D2
:1024CC003B617B6923F00A037B617A69BB68134328
:1024DC007B61FB683A699A61FB687A691A6200BF92
:1024EC001C37BD4680BC704780B487B000AFF86025
:1024FC00B9607A60FB681B6A23F01002FB681A62F1
:10250C00FB689B697B61FB681B6A3B617B6923F4FD
:10251C0070437B617B681B037A6913437B613B6966
:10252C0023F0A0033B61BB681B013A6913433B6179
:10253C00FB687A699A61FB683A691A6200BF1C37BA
:10254C00BD4680BC704780B485B000AF7860396000
:10255C007B689B68FB60FB6823F07003FB603A6848
:10256C00FB68134343F00703FB607B68FA689A60CF
:10257C0000BF1437BD4680BC704780B487B000AF35
:10258C00F860B9607A603B60FB689B687B617B6933
:10259C0023F47F437B613B681A027B681A43BB6858
:1025AC0013437A6913437B61FB687A699A6000BFB5
:1025BC001C37BD4680BC704780B485B000AF7860D6
:1025CC0039607B6893F83C30012B01D1022341E048
:1025DC007B68012283F83C207B68022283F83D2033
:1025EC007B681B685B68FB607B681B689B68BB60D7
:1025FC00FB6823F07003FB603B681B68FA681343AD
:10260C00FB607B681B68FA685A607B681B68144A1D
:10261C00934209D07B681B68B3F1804F04D07B6870
:10262C001B68104A93420CD1BB6823F08003BB603B
:10263C003B685B68BA681343BB607B681B68BA680D
:10264C009A607B68012283F83D207B68002283F826
:10265C003C20002318461437BD4680BC704700BF91
:10266C00002C01400004004080B483B000AF7860BF
:10267C0000BF0C37BD4680BC704780B483B000AF40
:10268C00786000BF0C37BD4680BC704770B5002623
:10269C000C4D0D4C641BA410A64209D100F022F87D
:1026AC0000260A4D0A4C641BA410A64205D170BD2D
:1026BC0055F8043B98470136EEE755F8043B98472C
:1026CC000136F2E7282700082827000828270008E9
:1026DC002C27000803460244934200D1704703F8AC
:1026EC00011BF9E7F8B500BFF8BC08BC9E46704763
:0C26FC00F8B500BFF8BC08BC9E46704753
:1027080002030405060708090A0B0C0D0E0F10102A
:102718000000000000000000010203040607080989
:042728003101000873
:04272C000D01000893
:1027300001000200040000003F065B4F666D7D074C
:102740007F6700000024F40010000000010000007A
:04000005080010518E
:00000001FF
